{
  "_format": "hh-sol-artifact-1",
  "contractName": "Faucet",
  "sourceName": "contracts/Faucet.sol",
  "abi": [
    {
      "inputs": [
        {
          "internalType": "address",
          "name": "tokenAddress",
          "type": "address"
        }
      ],
      "stateMutability": "nonpayable",
      "type": "constructor"
    },
    {
      "inputs": [],
      "name": "cooldown",
      "outputs": [
        {
          "internalType": "uint256",
          "name": "",
          "type": "uint256"
        }
      ],
      "stateMutability": "view",
      "type": "function"
    },
    {
      "inputs": [],
      "name": "dripAmount",
      "outputs": [
        {
          "internalType": "uint256",
          "name": "",
          "type": "uint256"
        }
      ],
      "stateMutability": "view",
      "type": "function"
    },
    {
      "inputs": [
        {
          "internalType": "address",
          "name": "",
          "type": "address"
        }
      ],
      "name": "lastDrip",
      "outputs": [
        {
          "internalType": "uint256",
          "name": "",
          "type": "uint256"
        }
      ],
      "stateMutability": "view",
      "type": "function"
    },
    {
      "inputs": [],
      "name": "requestTokens",
      "outputs": [],
      "stateMutability": "nonpayable",
      "type": "function"
    },
    {
      "inputs": [],
      "name": "token",
      "outputs": [
        {
          "internalType": "contract TestUSDC",
          "name": "",
          "type": "address"
        }
      ],
      "stateMutability": "view",
      "type": "function"
    }
  ],
  "bytecode": "0x60806040526305f5e100600155610e1060025534801561001e57600080fd5b5060405161064d38038061064d833981810160405281019061004091906100e9565b806000806101000a81548173ffffffffffffffffffffffffffffffffffffffff021916908373ffffffffffffffffffffffffffffffffffffffff16021790555050610116565b600080fd5b600073ffffffffffffffffffffffffffffffffffffffff82169050919050565b60006100b68261008b565b9050919050565b6100c6816100ab565b81146100d157600080fd5b50565b6000815190506100e3816100bd565b92915050565b6000602082840312156100ff576100fe610086565b5b600061010d848285016100d4565b91505092915050565b610528806101256000396000f3fe608060405234801561001057600080fd5b50600436106100575760003560e01c80630935f0041461005c578063359cf2b71461008c57806335a1529b14610096578063787a08a6146100b4578063fc0c546a146100d2575b600080fd5b610076600480360381019061007191906102ff565b6100f0565b6040516100839190610345565b60405180910390f35b610094610108565b005b61009e61026c565b6040516100ab9190610345565b60405180910390f35b6100bc610272565b6040516100c99190610345565b60405180910390f35b6100da610278565b6040516100e791906103bf565b60405180910390f35b60036020528060005260406000206000915090505481565b600254600360003373ffffffffffffffffffffffffffffffffffffffff1673ffffffffffffffffffffffffffffffffffffffff16815260200190815260200160002054426101569190610409565b1015610197576040517f08c379a000000000000000000000000000000000000000000000000000000000815260040161018e9061049a565b60405180910390fd5b42600360003373ffffffffffffffffffffffffffffffffffffffff1673ffffffffffffffffffffffffffffffffffffffff1681526020019081526020016000208190555060008054906101000a900473ffffffffffffffffffffffffffffffffffffffff1673ffffffffffffffffffffffffffffffffffffffff166340c10f19336001546040518363ffffffff1660e01b81526004016102389291906104c9565b600060405180830381600087803b15801561025257600080fd5b505af1158015610266573d6000803e3d6000fd5b50505050565b60015481565b60025481565b60008054906101000a900473ffffffffffffffffffffffffffffffffffffffff1681565b600080fd5b600073ffffffffffffffffffffffffffffffffffffffff82169050919050565b60006102cc826102a1565b9050919050565b6102dc816102c1565b81146102e757600080fd5b50565b6000813590506102f9816102d3565b92915050565b6000602082840312156103155761031461029c565b5b6000610323848285016102ea565b91505092915050565b6000819050919050565b61033f8161032c565b82525050565b600060208201905061035a6000830184610336565b92915050565b6000819050919050565b600061038561038061037b846102a1565b610360565b6102a1565b9050919050565b60006103978261036a565b9050919050565b60006103a98261038c565b9050919050565b6103b98161039e565b82525050565b60006020820190506103d460008301846103b0565b92915050565b7f4e487b7100000000000000000000000000000000000000000000000000000000600052601160045260246000fd5b60006104148261032c565b915061041f8361032c565b9250828203905081811115610437576104366103da565b5b92915050565b600082825260208201905092915050565b7f54727920616761696e206c617465720000000000000000000000000000000000600082015250565b6000610484600f8361043d565b915061048f8261044e565b602082019050919050565b600060208201905081810360008301526104b381610477565b9050919050565b6104c3816102c1565b82525050565b60006040820190506104de60008301856104ba565b6104eb6020830184610336565b939250505056fea2646970667358221220c2a37816dceb741facbcaca2b29d86d75ac126f42d5039c3c3f9d99d17f306d964736f6c63430008140033",
  "linkReferences": {},
  "deployedLinkReferences": {}
}